{
  "_format": "hh-sol-artifact-1",
  "contractName": "Movie",
  "sourceName": "contracts/Movie.sol",
  "abi": [
    {
      "inputs": [
        {
          "internalType": "address",
          "name": "_interactContract",
          "type": "address"
        }
      ],
      "stateMutability": "nonpayable",
      "type": "constructor"
    },
    {
      "inputs": [
        {
          "internalType": "address",
          "name": "from",
          "type": "address"
        },
        {
          "internalType": "address",
          "name": "to",
          "type": "address"
        },
        {
          "internalType": "uint256",
          "name": "amount",
          "type": "uint256"
        }
      ],
      "name": "transferFrom",
      "outputs": [],
      "stateMutability": "nonpayable",
      "type": "function"
    }
  ],
  "bytecode": "0x60806040526001805534801561001457600080fd5b506040516103e23803806103e283398181016040528101906100369190610091565b806000806101000a81548173ffffffffffffffffffffffffffffffffffffffff021916908373ffffffffffffffffffffffffffffffffffffffff16021790555050610103565b60008151905061008b816100ec565b92915050565b6000602082840312156100a357600080fd5b60006100b18482850161007c565b91505092915050565b60006100c5826100cc565b9050919050565b600073ffffffffffffffffffffffffffffffffffffffff82169050919050565b6100f5816100ba565b811461010057600080fd5b50565b6102d0806101126000396000f3fe608060405234801561001057600080fd5b506004361061002b5760003560e01c806323b872dd14610030575b600080fd5b61004a60048036038101906100459190610140565b61004c565b005b60008054906101000a900473ffffffffffffffffffffffffffffffffffffffff1673ffffffffffffffffffffffffffffffffffffffff166323b872dd8484846040518463ffffffff1660e01b81526004016100a9939291906101d6565b602060405180830381600087803b1580156100c357600080fd5b505af11580156100d7573d6000803e3d6000fd5b505050506040513d601f19601f820116820180604052508101906100fb919061018f565b50505050565b60008135905061011081610255565b92915050565b6000815190506101258161026c565b92915050565b60008135905061013a81610283565b92915050565b60008060006060848603121561015557600080fd5b600061016386828701610101565b935050602061017486828701610101565b92505060406101858682870161012b565b9150509250925092565b6000602082840312156101a157600080fd5b60006101af84828501610116565b91505092915050565b6101c18161020d565b82525050565b6101d08161024b565b82525050565b60006060820190506101eb60008301866101b8565b6101f860208301856101b8565b61020560408301846101c7565b949350505050565b60006102188261022b565b9050919050565b60008115159050919050565b600073ffffffffffffffffffffffffffffffffffffffff82169050919050565b6000819050919050565b61025e8161020d565b811461026957600080fd5b50565b6102758161021f565b811461028057600080fd5b50565b61028c8161024b565b811461029757600080fd5b5056fea2646970667358221220bc07cfe0282bed89ee95f3a7f99400cf2398ab9a610e2a0d42347ec7130accab64736f6c63430008040033",
  "linkReferences": {},
  "deployedLinkReferences": {}
}